:100000000C94FE000C940E010C940E010C940E0145
:100010000C940E010C940E010C940E010C940E0124
:100020000C940E010C940E010C940E010C940E0114
:100030000C940E010C940E010C940E010C940E0104
:100040000C940E010C940E010C940E010C940E01F4
:100050000C940E010C940E010C940E010C940E01E4
:100060000C940E010C940E010C940E010C940E01D4
:100070000C940E010C940E010C940E010C940E01C4
:100080000C940E010C940E010C940E010C940E01B4
:100090000C940E010C940E010C940E010C940E01A4
:1000A0000C940E010C940E010C940E010C940E0194
:1000B0000C940E010C940E010C940E010C940E0184
:1000C0000C940E010C940E010C940E010C940E0174
:1000D0000C940E010C940E010C940E010C940E0164
:1000E0000C940E010C940E010C940E010C940E0154
:1000F0000C940E010C940E010C940E010C940E0144
:100100000C940E010C940E010C940E010C940E0133
:100110000C940E010C940E010C940E010C940E0123
:100120000C940E010C940E010C940E010C940E0113
:100130000C940E010C940E010C940E010C940E0103
:100140000C940E010C940E010C940E010C940E01F3
:100150000C940E010C940E010C940E010C940E01E3
:100160000C940E010C940E010C940E010C940E01D3
:100170000C940E010C940E010C940E010C940E01C3
:100180000C940E010C940E010C940E010C940E01B3
:100190000C940E010C940E010C940E010C940E01A3
:1001A0000C940E010C940E010C940E010C940E0193
:1001B0000C940E010C940E010C940E010C940E0183
:1001C0000C940E010C940E010C940E010C940E0173
:1001D0000C940E010C940E010C940E010C940E0163
:1001E0000C940E010C940E010C940E010C940E0153
:1001F0000C940E010C940E010C940E0111241FBEE0
:10020000CFEFCDBFDFE3DEBF00E00CBF18BE19BEED
:100210001ABE1BBE0E9410010C9452010C940000E7
:10022000CF93DF9300D01F92CDB7DEB7E0ECF7E0BD
:1002300080818860808384818860848381E0898371
:100240001A821B821C82CE0101960E943701E0ECCB
:10025000F7E098E08481892784832FEF37EA81E6ED
:10026000215030408040E1F700C00000F3CFDC01B6
:10027000E0E4F0E090818C91892B8083918111964C
:100280008C911197880F880F892B81839181129609
:100290008C911297892B8183928113968C91892B53
:0802A00082830895F894FFCF5A
:00000001FF
